{
  "_format": "hh-sol-artifact-1",
  "contractName": "CertificationRegistration",
  "sourceName": "contracts/Certification.sol",
  "abi": [
    {
      "anonymous": false,
      "inputs": [
        {
          "indexed": true,
          "internalType": "address",
          "name": "previousOwner",
          "type": "address"
        },
        {
          "indexed": true,
          "internalType": "address",
          "name": "newOwner",
          "type": "address"
        }
      ],
      "name": "OwnershipTransferred",
      "type": "event"
    },
    {
      "inputs": [
        {
          "internalType": "string",
          "name": "_hash",
          "type": "string"
        },
        {
          "internalType": "string",
          "name": "_certNum",
          "type": "string"
        },
        {
          "internalType": "uint256",
          "name": "_expireDate",
          "type": "uint256"
        },
        {
          "internalType": "string",
          "name": "_version",
          "type": "string"
        },
        {
          "internalType": "string",
          "name": "_desc",
          "type": "string"
        }
      ],
      "name": "addCertification",
      "outputs": [
        {
          "internalType": "uint256",
          "name": "",
          "type": "uint256"
        }
      ],
      "stateMutability": "nonpayable",
      "type": "function"
    },
    {
      "inputs": [
        {
          "internalType": "string",
          "name": "",
          "type": "string"
        }
      ],
      "name": "certifications",
      "outputs": [
        {
          "internalType": "uint256",
          "name": "id",
          "type": "uint256"
        },
        {
          "internalType": "string",
          "name": "certNum",
          "type": "string"
        },
        {
          "internalType": "string",
          "name": "hash",
          "type": "string"
        },
        {
          "internalType": "address",
          "name": "issuer",
          "type": "address"
        },
        {
          "internalType": "uint256",
          "name": "expireDate",
          "type": "uint256"
        },
        {
          "internalType": "uint256",
          "name": "createdAt",
          "type": "uint256"
        },
        {
          "internalType": "bool",
          "name": "isRevoked",
          "type": "bool"
        },
        {
          "internalType": "string",
          "name": "version",
          "type": "string"
        },
        {
          "internalType": "string",
          "name": "description",
          "type": "string"
        },
        {
          "internalType": "string",
          "name": "revokerName",
          "type": "string"
        },
        {
          "internalType": "uint256",
          "name": "revokedAt",
          "type": "uint256"
        }
      ],
      "stateMutability": "view",
      "type": "function"
    },
    {
      "inputs": [
        {
          "internalType": "address",
          "name": "addr",
          "type": "address"
        },
        {
          "internalType": "uint256",
          "name": "credit",
          "type": "uint256"
        }
      ],
      "name": "chargeCredit",
      "outputs": [],
      "stateMutability": "nonpayable",
      "type": "function"
    },
    {
      "inputs": [],
      "name": "creditAddress",
      "outputs": [
        {
          "internalType": "address",
          "name": "",
          "type": "address"
        }
      ],
      "stateMutability": "view",
      "type": "function"
    },
    {
      "inputs": [
        {
          "internalType": "address",
          "name": "",
          "type": "address"
        }
      ],
      "name": "credits",
      "outputs": [
        {
          "internalType": "uint256",
          "name": "",
          "type": "uint256"
        }
      ],
      "stateMutability": "view",
      "type": "function"
    },
    {
      "inputs": [
        {
          "internalType": "string",
          "name": "hash",
          "type": "string"
        }
      ],
      "name": "getCertification",
      "outputs": [
        {
          "components": [
            {
              "internalType": "uint256",
              "name": "id",
              "type": "uint256"
            },
            {
              "internalType": "string",
              "name": "certNum",
              "type": "string"
            },
            {
              "internalType": "string",
              "name": "hash",
              "type": "string"
            },
            {
              "internalType": "address",
              "name": "issuer",
              "type": "address"
            },
            {
              "internalType": "uint256",
              "name": "expireDate",
              "type": "uint256"
            },
            {
              "internalType": "uint256",
              "name": "createdAt",
              "type": "uint256"
            },
            {
              "internalType": "bool",
              "name": "isRevoked",
              "type": "bool"
            },
            {
              "internalType": "string",
              "name": "version",
              "type": "string"
            },
            {
              "internalType": "string",
              "name": "description",
              "type": "string"
            },
            {
              "internalType": "string",
              "name": "revokerName",
              "type": "string"
            },
            {
              "internalType": "uint256",
              "name": "revokedAt",
              "type": "uint256"
            }
          ],
          "internalType": "struct CertificationRegistration.Certification",
          "name": "",
          "type": "tuple"
        }
      ],
      "stateMutability": "view",
      "type": "function"
    },
    {
      "inputs": [
        {
          "internalType": "string",
          "name": "certNum",
          "type": "string"
        }
      ],
      "name": "getCertificationByCertNum",
      "outputs": [
        {
          "components": [
            {
              "internalType": "uint256",
              "name": "id",
              "type": "uint256"
            },
            {
              "internalType": "string",
              "name": "certNum",
              "type": "string"
            },
            {
              "internalType": "string",
              "name": "hash",
              "type": "string"
            },
            {
              "internalType": "address",
              "name": "issuer",
              "type": "address"
            },
            {
              "internalType": "uint256",
              "name": "expireDate",
              "type": "uint256"
            },
            {
              "internalType": "uint256",
              "name": "createdAt",
              "type": "uint256"
            },
            {
              "internalType": "bool",
              "name": "isRevoked",
              "type": "bool"
            },
            {
              "internalType": "string",
              "name": "version",
              "type": "string"
            },
            {
              "internalType": "string",
              "name": "description",
              "type": "string"
            },
            {
              "internalType": "string",
              "name": "revokerName",
              "type": "string"
            },
            {
              "internalType": "uint256",
              "name": "revokedAt",
              "type": "uint256"
            }
          ],
          "internalType": "struct CertificationRegistration.Certification",
          "name": "",
          "type": "tuple"
        }
      ],
      "stateMutability": "view",
      "type": "function"
    },
    {
      "inputs": [
        {
          "internalType": "uint256",
          "name": "ID",
          "type": "uint256"
        }
      ],
      "name": "getCertificationByID",
      "outputs": [
        {
          "components": [
            {
              "internalType": "uint256",
              "name": "id",
              "type": "uint256"
            },
            {
              "internalType": "string",
              "name": "certNum",
              "type": "string"
            },
            {
              "internalType": "string",
              "name": "hash",
              "type": "string"
            },
            {
              "internalType": "address",
              "name": "issuer",
              "type": "address"
            },
            {
              "internalType": "uint256",
              "name": "expireDate",
              "type": "uint256"
            },
            {
              "internalType": "uint256",
              "name": "createdAt",
              "type": "uint256"
            },
            {
              "internalType": "bool",
              "name": "isRevoked",
              "type": "bool"
            },
            {
              "internalType": "string",
              "name": "version",
              "type": "string"
            },
            {
              "internalType": "string",
              "name": "description",
              "type": "string"
            },
            {
              "internalType": "string",
              "name": "revokerName",
              "type": "string"
            },
            {
              "internalType": "uint256",
              "name": "revokedAt",
              "type": "uint256"
            }
          ],
          "internalType": "struct CertificationRegistration.Certification",
          "name": "",
          "type": "tuple"
        }
      ],
      "stateMutability": "view",
      "type": "function"
    },
    {
      "inputs": [
        {
          "internalType": "address",
          "name": "addr",
          "type": "address"
        }
      ],
      "name": "getCredit",
      "outputs": [
        {
          "internalType": "uint256",
          "name": "",
          "type": "uint256"
        }
      ],
      "stateMutability": "view",
      "type": "function"
    },
    {
      "inputs": [],
      "name": "id",
      "outputs": [
        {
          "internalType": "uint256",
          "name": "",
          "type": "uint256"
        }
      ],
      "stateMutability": "view",
      "type": "function"
    },
    {
      "inputs": [],
      "name": "initialize",
      "outputs": [],
      "stateMutability": "nonpayable",
      "type": "function"
    },
    {
      "inputs": [
        {
          "internalType": "string",
          "name": "",
          "type": "string"
        }
      ],
      "name": "mapByCertNum",
      "outputs": [
        {
          "internalType": "uint256",
          "name": "id",
          "type": "uint256"
        },
        {
          "internalType": "string",
          "name": "certNum",
          "type": "string"
        },
        {
          "internalType": "string",
          "name": "hash",
          "type": "string"
        },
        {
          "internalType": "address",
          "name": "issuer",
          "type": "address"
        },
        {
          "internalType": "uint256",
          "name": "expireDate",
          "type": "uint256"
        },
        {
          "internalType": "uint256",
          "name": "createdAt",
          "type": "uint256"
        },
        {
          "internalType": "bool",
          "name": "isRevoked",
          "type": "bool"
        },
        {
          "internalType": "string",
          "name": "version",
          "type": "string"
        },
        {
          "internalType": "string",
          "name": "description",
          "type": "string"
        },
        {
          "internalType": "string",
          "name": "revokerName",
          "type": "string"
        },
        {
          "internalType": "uint256",
          "name": "revokedAt",
          "type": "uint256"
        }
      ],
      "stateMutability": "view",
      "type": "function"
    },
    {
      "inputs": [
        {
          "internalType": "uint256",
          "name": "",
          "type": "uint256"
        }
      ],
      "name": "mapById",
      "outputs": [
        {
          "internalType": "uint256",
          "name": "id",
          "type": "uint256"
        },
        {
          "internalType": "string",
          "name": "certNum",
          "type": "string"
        },
        {
          "internalType": "string",
          "name": "hash",
          "type": "string"
        },
        {
          "internalType": "address",
          "name": "issuer",
          "type": "address"
        },
        {
          "internalType": "uint256",
          "name": "expireDate",
          "type": "uint256"
        },
        {
          "internalType": "uint256",
          "name": "createdAt",
          "type": "uint256"
        },
        {
          "internalType": "bool",
          "name": "isRevoked",
          "type": "bool"
        },
        {
          "internalType": "string",
          "name": "version",
          "type": "string"
        },
        {
          "internalType": "string",
          "name": "description",
          "type": "string"
        },
        {
          "internalType": "string",
          "name": "revokerName",
          "type": "string"
        },
        {
          "internalType": "uint256",
          "name": "revokedAt",
          "type": "uint256"
        }
      ],
      "stateMutability": "view",
      "type": "function"
    },
    {
      "inputs": [],
      "name": "owner",
      "outputs": [
        {
          "internalType": "address",
          "name": "",
          "type": "address"
        }
      ],
      "stateMutability": "view",
      "type": "function"
    },
    {
      "inputs": [],
      "name": "renounceOwnership",
      "outputs": [],
      "stateMutability": "nonpayable",
      "type": "function"
    },
    {
      "inputs": [
        {
          "internalType": "string",
          "name": "hash",
          "type": "string"
        },
        {
          "internalType": "string",
          "name": "revokerName",
          "type": "string"
        }
      ],
      "name": "revoke",
      "outputs": [],
      "stateMutability": "nonpayable",
      "type": "function"
    },
    {
      "inputs": [
        {
          "internalType": "uint256",
          "name": "ID",
          "type": "uint256"
        },
        {
          "internalType": "string",
          "name": "revokerName",
          "type": "string"
        }
      ],
      "name": "revokeById",
      "outputs": [],
      "stateMutability": "nonpayable",
      "type": "function"
    },
    {
      "inputs": [
        {
          "internalType": "address",
          "name": "newOwner",
          "type": "address"
        }
      ],
      "name": "transferOwnership",
      "outputs": [],
      "stateMutability": "nonpayable",
      "type": "function"
    }
  ],
  "bytecode": "0x608060405234801561001057600080fd5b50614395806100206000396000f3fe608060405234801561001057600080fd5b50600436106101165760003560e01c80638129fc1c116100a2578063c941cc5711610071578063c941cc5714610309578063f0d0fa3814610325578063f2fde38b14610341578063fc6b38ad1461035d578063fe5ff4681461039757610116565b80638129fc1c146102895780638da5cb5b146102935780639bda9c2d146102b1578063af640d0f146102eb57610116565b806338139af5116100e957806338139af5146101bf5780634ad825a1146101ef5780634f7b3c7d1461021f57806357344e6f1461024f578063715018a61461027f57610116565b806310b40f851461011b5780631266a63014610137578063148f90bb14610171578063268ee59c1461018f575b600080fd5b6101356004803603810190610130919061370c565b6103c7565b005b610151600480360381019061014c919061384f565b610777565b6040516101689b9a99989796959493929190613d9e565b60405180910390f35b610179610aa6565b6040516101869190613c26565b60405180910390f35b6101a960048036038101906101a491906136cb565b610acc565b6040516101b69190613d61565b60405180910390f35b6101d960048036038101906101d4919061384f565b610e78565b6040516101e69190613d61565b60405180910390f35b61020960048036038101906102049190613778565b611219565b6040516102169190613d83565b60405180910390f35b610239600480360381019061023491906136cb565b611b78565b6040516102469190613d61565b60405180910390f35b61026960048036038101906102649190613666565b611f24565b6040516102769190613d83565b60405180910390f35b610287611f6d565b005b610291611ff5565b005b61029b6120e9565b6040516102a89190613c26565b60405180910390f35b6102cb60048036038101906102c691906136cb565b612113565b6040516102e29b9a99989796959493929190613d9e565b60405180910390f35b6102f3612458565b6040516103009190613d83565b60405180910390f35b610323600480360381019061031e919061368f565b61245e565b005b61033f600480360381019061033a9190613878565b612534565b005b61035b60048036038101906103569190613666565b6128d9565b005b610377600480360381019061037291906136cb565b6129d1565b60405161038e9b9a99989796959493929190613d9e565b60405180910390f35b6103b160048036038101906103ac9190613666565b612d16565b6040516103be9190613d83565b60405180910390f35b60006067836040516103d99190613c0f565b9081526020016040518091039020604051806101600160405290816000820154815260200160018201805461040d90614004565b80601f016020809104026020016040519081016040528092919081815260200182805461043990614004565b80156104865780601f1061045b57610100808354040283529160200191610486565b820191906000526020600020905b81548152906001019060200180831161046957829003601f168201915b5050505050815260200160028201805461049f90614004565b80601f01602080910402602001604051908101604052809291908181526020018280546104cb90614004565b80156105185780601f106104ed57610100808354040283529160200191610518565b820191906000526020600020905b8154815290600101906020018083116104fb57829003601f168201915b505050505081526020016003820160009054906101000a900473ffffffffffffffffffffffffffffffffffffffff1673ffffffffffffffffffffffffffffffffffffffff1673ffffffffffffffffffffffffffffffffffffffff16815260200160048201548152602001600582015481526020016006820160009054906101000a900460ff161515151581526020016007820180546105b690614004565b80601f01602080910402602001604051908101604052809291908181526020018280546105e290614004565b801561062f5780601f106106045761010080835404028352916020019161062f565b820191906000526020600020905b81548152906001019060200180831161061257829003601f168201915b5050505050815260200160088201805461064890614004565b80601f016020809104026020016040519081016040528092919081815260200182805461067490614004565b80156106c15780601f10610696576101008083540402835291602001916106c1565b820191906000526020600020905b8154815290600101906020018083116106a457829003601f168201915b505050505081526020016009820180546106da90614004565b80601f016020809104026020016040519081016040528092919081815260200182805461070690614004565b80156107535780601f1061072857610100808354040283529160200191610753565b820191906000526020600020905b81548152906001019060200180831161073657829003601f168201915b50505050508152602001600a8201548152505090506107728183612d2e565b505050565b60686020528060005260406000206000915090508060000154908060010180546107a090614004565b80601f01602080910402602001604051908101604052809291908181526020018280546107cc90614004565b80156108195780601f106107ee57610100808354040283529160200191610819565b820191906000526020600020905b8154815290600101906020018083116107fc57829003601f168201915b50505050509080600201805461082e90614004565b80601f016020809104026020016040519081016040528092919081815260200182805461085a90614004565b80156108a75780601f1061087c576101008083540402835291602001916108a7565b820191906000526020600020905b81548152906001019060200180831161088a57829003601f168201915b5050505050908060030160009054906101000a900473ffffffffffffffffffffffffffffffffffffffff16908060040154908060050154908060060160009054906101000a900460ff169080600701805461090190614004565b80601f016020809104026020016040519081016040528092919081815260200182805461092d90614004565b801561097a5780601f1061094f5761010080835404028352916020019161097a565b820191906000526020600020905b81548152906001019060200180831161095d57829003601f168201915b50505050509080600801805461098f90614004565b80601f01602080910402602001604051908101604052809291908181526020018280546109bb90614004565b8015610a085780601f106109dd57610100808354040283529160200191610a08565b820191906000526020600020905b8154815290600101906020018083116109eb57829003601f168201915b505050505090806009018054610a1d90614004565b80601f0160208091040260200160405190810160405280929190818152602001828054610a4990614004565b8015610a965780601f10610a6b57610100808354040283529160200191610a96565b820191906000526020600020905b815481529060010190602001808311610a7957829003601f168201915b50505050509080600a015490508b565b606660009054906101000a900473ffffffffffffffffffffffffffffffffffffffff1681565b610ad46134bf565b606982604051610ae49190613c0f565b90815260200160405180910390206040518061016001604052908160008201548152602001600182018054610b1890614004565b80601f0160208091040260200160405190810160405280929190818152602001828054610b4490614004565b8015610b915780601f10610b6657610100808354040283529160200191610b91565b820191906000526020600020905b815481529060010190602001808311610b7457829003601f168201915b50505050508152602001600282018054610baa90614004565b80601f0160208091040260200160405190810160405280929190818152602001828054610bd690614004565b8015610c235780601f10610bf857610100808354040283529160200191610c23565b820191906000526020600020905b815481529060010190602001808311610c0657829003601f168201915b505050505081526020016003820160009054906101000a900473ffffffffffffffffffffffffffffffffffffffff1673ffffffffffffffffffffffffffffffffffffffff1673ffffffffffffffffffffffffffffffffffffffff16815260200160048201548152602001600582015481526020016006820160009054906101000a900460ff16151515158152602001600782018054610cc190614004565b80601f0160208091040260200160405190810160405280929190818152602001828054610ced90614004565b8015610d3a5780601f10610d0f57610100808354040283529160200191610d3a565b820191906000526020600020905b815481529060010190602001808311610d1d57829003601f168201915b50505050508152602001600882018054610d5390614004565b80601f0160208091040260200160405190810160405280929190818152602001828054610d7f90614004565b8015610dcc5780601f10610da157610100808354040283529160200191610dcc565b820191906000526020600020905b815481529060010190602001808311610daf57829003601f168201915b50505050508152602001600982018054610de590614004565b80601f0160208091040260200160405190810160405280929190818152602001828054610e1190614004565b8015610e5e5780601f10610e3357610100808354040283529160200191610e5e565b820191906000526020600020905b815481529060010190602001808311610e4157829003601f168201915b50505050508152602001600a820154815250509050919050565b610e806134bf565b606860008381526020019081526020016000206040518061016001604052908160008201548152602001600182018054610eb990614004565b80601f0160208091040260200160405190810160405280929190818152602001828054610ee590614004565b8015610f325780601f10610f0757610100808354040283529160200191610f32565b820191906000526020600020905b815481529060010190602001808311610f1557829003601f168201915b50505050508152602001600282018054610f4b90614004565b80601f0160208091040260200160405190810160405280929190818152602001828054610f7790614004565b8015610fc45780601f10610f9957610100808354040283529160200191610fc4565b820191906000526020600020905b815481529060010190602001808311610fa757829003601f168201915b505050505081526020016003820160009054906101000a900473ffffffffffffffffffffffffffffffffffffffff1673ffffffffffffffffffffffffffffffffffffffff1673ffffffffffffffffffffffffffffffffffffffff16815260200160048201548152602001600582015481526020016006820160009054906101000a900460ff1615151515815260200160078201805461106290614004565b80601f016020809104026020016040519081016040528092919081815260200182805461108e90614004565b80156110db5780601f106110b0576101008083540402835291602001916110db565b820191906000526020600020905b8154815290600101906020018083116110be57829003601f168201915b505050505081526020016008820180546110f490614004565b80601f016020809104026020016040519081016040528092919081815260200182805461112090614004565b801561116d5780601f106111425761010080835404028352916020019161116d565b820191906000526020600020905b81548152906001019060200180831161115057829003601f168201915b5050505050815260200160098201805461118690614004565b80601f01602080910402602001604051908101604052809291908181526020018280546111b290614004565b80156111ff5780601f106111d4576101008083540402835291602001916111ff565b820191906000526020600020905b8154815290600101906020018083116111e257829003601f168201915b50505050508152602001600a820154815250509050919050565b60008060678760405161122c9190613c0f565b9081526020016040518091039020604051806101600160405290816000820154815260200160018201805461126090614004565b80601f016020809104026020016040519081016040528092919081815260200182805461128c90614004565b80156112d95780601f106112ae576101008083540402835291602001916112d9565b820191906000526020600020905b8154815290600101906020018083116112bc57829003601f168201915b505050505081526020016002820180546112f290614004565b80601f016020809104026020016040519081016040528092919081815260200182805461131e90614004565b801561136b5780601f106113405761010080835404028352916020019161136b565b820191906000526020600020905b81548152906001019060200180831161134e57829003601f168201915b505050505081526020016003820160009054906101000a900473ffffffffffffffffffffffffffffffffffffffff1673ffffffffffffffffffffffffffffffffffffffff1673ffffffffffffffffffffffffffffffffffffffff16815260200160048201548152602001600582015481526020016006820160009054906101000a900460ff1615151515815260200160078201805461140990614004565b80601f016020809104026020016040519081016040528092919081815260200182805461143590614004565b80156114825780601f1061145757610100808354040283529160200191611482565b820191906000526020600020905b81548152906001019060200180831161146557829003601f168201915b5050505050815260200160088201805461149b90614004565b80601f01602080910402602001604051908101604052809291908181526020018280546114c790614004565b80156115145780601f106114e957610100808354040283529160200191611514565b820191906000526020600020905b8154815290600101906020018083116114f757829003601f168201915b5050505050815260200160098201805461152d90614004565b80601f016020809104026020016040519081016040528092919081815260200182805461155990614004565b80156115a65780601f1061157b576101008083540402835291602001916115a6565b820191906000526020600020905b81548152906001019060200180831161158957829003601f168201915b50505050508152602001600a8201548152505090508060c0015161160c57600081600001511461160b576040517f08c379a000000000000000000000000000000000000000000000000000000000815260040161160290613c81565b60405180910390fd5b5b6000606a60003373ffffffffffffffffffffffffffffffffffffffff1673ffffffffffffffffffffffffffffffffffffffff168152602001908152602001600020541161168e576040517f08c379a000000000000000000000000000000000000000000000000000000000815260040161168590613c41565b60405180910390fd5b60656000815461169d90614067565b91905081905581600001818152505086816040018190525033816060019073ffffffffffffffffffffffffffffffffffffffff16908173ffffffffffffffffffffffffffffffffffffffff168152505084816080018181525050428160a001818152505060008160c0019015159081151581525050838160e0018190525082816101000181905250604051806020016040528060008152508161012001819052506000816101400181815250508060678860405161175b9190613c0f565b908152602001604051809103902060008201518160000155602082015181600101908051906020019061178f929190613531565b5060408201518160020190805190602001906117ac929190613531565b5060608201518160030160006101000a81548173ffffffffffffffffffffffffffffffffffffffff021916908373ffffffffffffffffffffffffffffffffffffffff1602179055506080820151816004015560a0820151816005015560c08201518160060160006101000a81548160ff02191690831515021790555060e0820151816007019080519060200190611844929190613531565b50610100820151816008019080519060200190611862929190613531565b50610120820151816009019080519060200190611880929190613531565b5061014082015181600a01559050508060686000836000015181526020019081526020016000206000820151816000015560208201518160010190805190602001906118cd929190613531565b5060408201518160020190805190602001906118ea929190613531565b5060608201518160030160006101000a81548173ffffffffffffffffffffffffffffffffffffffff021916908373ffffffffffffffffffffffffffffffffffffffff1602179055506080820151816004015560a0820151816005015560c08201518160060160006101000a81548160ff02191690831515021790555060e0820151816007019080519060200190611982929190613531565b506101008201518160080190805190602001906119a0929190613531565b506101208201518160090190805190602001906119be929190613531565b5061014082015181600a0155905050806069876040516119de9190613c0f565b9081526020016040518091039020600082015181600001556020820151816001019080519060200190611a12929190613531565b506040820151816002019080519060200190611a2f929190613531565b5060608201518160030160006101000a81548173ffffffffffffffffffffffffffffffffffffffff021916908373ffffffffffffffffffffffffffffffffffffffff1602179055506080820151816004015560a0820151816005015560c08201518160060160006101000a81548160ff02191690831515021790555060e0820151816007019080519060200190611ac7929190613531565b50610100820151816008019080519060200190611ae5929190613531565b50610120820151816009019080519060200190611b03929190613531565b5061014082015181600a0155905050606a60003373ffffffffffffffffffffffffffffffffffffffff1673ffffffffffffffffffffffffffffffffffffffff1681526020019081526020016000206000815480929190611b6290613fda565b9190505550806000015191505095945050505050565b611b806134bf565b606782604051611b909190613c0f565b90815260200160405180910390206040518061016001604052908160008201548152602001600182018054611bc490614004565b80601f0160208091040260200160405190810160405280929190818152602001828054611bf090614004565b8015611c3d5780601f10611c1257610100808354040283529160200191611c3d565b820191906000526020600020905b815481529060010190602001808311611c2057829003601f168201915b50505050508152602001600282018054611c5690614004565b80601f0160208091040260200160405190810160405280929190818152602001828054611c8290614004565b8015611ccf5780601f10611ca457610100808354040283529160200191611ccf565b820191906000526020600020905b815481529060010190602001808311611cb257829003601f168201915b505050505081526020016003820160009054906101000a900473ffffffffffffffffffffffffffffffffffffffff1673ffffffffffffffffffffffffffffffffffffffff1673ffffffffffffffffffffffffffffffffffffffff16815260200160048201548152602001600582015481526020016006820160009054906101000a900460ff16151515158152602001600782018054611d6d90614004565b80601f0160208091040260200160405190810160405280929190818152602001828054611d9990614004565b8015611de65780601f10611dbb57610100808354040283529160200191611de6565b820191906000526020600020905b815481529060010190602001808311611dc957829003601f168201915b50505050508152602001600882018054611dff90614004565b80601f0160208091040260200160405190810160405280929190818152602001828054611e2b90614004565b8015611e785780601f10611e4d57610100808354040283529160200191611e78565b820191906000526020600020905b815481529060010190602001808311611e5b57829003601f168201915b50505050508152602001600982018054611e9190614004565b80601f0160208091040260200160405190810160405280929190818152602001828054611ebd90614004565b8015611f0a5780601f10611edf57610100808354040283529160200191611f0a565b820191906000526020600020905b815481529060010190602001808311611eed57829003601f168201915b50505050508152602001600a820154815250509050919050565b6000606a60008373ffffffffffffffffffffffffffffffffffffffff1673ffffffffffffffffffffffffffffffffffffffff168152602001908152602001600020549050919050565b611f75613303565b73ffffffffffffffffffffffffffffffffffffffff16611f936120e9565b73ffffffffffffffffffffffffffffffffffffffff1614611fe9576040517f08c379a0000000000000000000000000000000000000000000000000000000008152600401611fe090613d01565b60405180910390fd5b611ff3600061330b565b565b600060019054906101000a900460ff1661201d5760008054906101000a900460ff1615612026565b6120256133d1565b5b612065576040517f08c379a000000000000000000000000000000000000000000000000000000000815260040161205c90613cc1565b60405180910390fd5b60008060019054906101000a900460ff1615905080156120b5576001600060016101000a81548160ff02191690831515021790555060016000806101000a81548160ff0219169083151502179055505b60006065819055506120c56133e2565b80156120e65760008060016101000a81548160ff0219169083151502179055505b50565b6000603360009054906101000a900473ffffffffffffffffffffffffffffffffffffffff16905090565b60698180516020810182018051848252602083016020850120818352809550505050505060009150905080600001549080600101805461215290614004565b80601f016020809104026020016040519081016040528092919081815260200182805461217e90614004565b80156121cb5780601f106121a0576101008083540402835291602001916121cb565b820191906000526020600020905b8154815290600101906020018083116121ae57829003601f168201915b5050505050908060020180546121e090614004565b80601f016020809104026020016040519081016040528092919081815260200182805461220c90614004565b80156122595780601f1061222e57610100808354040283529160200191612259565b820191906000526020600020905b81548152906001019060200180831161223c57829003601f168201915b5050505050908060030160009054906101000a900473ffffffffffffffffffffffffffffffffffffffff16908060040154908060050154908060060160009054906101000a900460ff16908060070180546122b390614004565b80601f01602080910402602001604051908101604052809291908181526020018280546122df90614004565b801561232c5780601f106123015761010080835404028352916020019161232c565b820191906000526020600020905b81548152906001019060200180831161230f57829003601f168201915b50505050509080600801805461234190614004565b80601f016020809104026020016040519081016040528092919081815260200182805461236d90614004565b80156123ba5780601f1061238f576101008083540402835291602001916123ba565b820191906000526020600020905b81548152906001019060200180831161239d57829003601f168201915b5050505050908060090180546123cf90614004565b80601f01602080910402602001604051908101604052809291908181526020018280546123fb90614004565b80156124485780601f1061241d57610100808354040283529160200191612448565b820191906000526020600020905b81548152906001019060200180831161242b57829003601f168201915b50505050509080600a015490508b565b60655481565b612466613303565b73ffffffffffffffffffffffffffffffffffffffff166124846120e9565b73ffffffffffffffffffffffffffffffffffffffff16146124da576040517f08c379a00000000000000000000000000000000000000000000000000000000081526004016124d190613d01565b60405180910390fd5b80606a60008473ffffffffffffffffffffffffffffffffffffffff1673ffffffffffffffffffffffffffffffffffffffff16815260200190815260200160002060008282546125299190613efa565b925050819055505050565b600060686000848152602001908152602001600020604051806101600160405290816000820154815260200160018201805461256f90614004565b80601f016020809104026020016040519081016040528092919081815260200182805461259b90614004565b80156125e85780601f106125bd576101008083540402835291602001916125e8565b820191906000526020600020905b8154815290600101906020018083116125cb57829003601f168201915b5050505050815260200160028201805461260190614004565b80601f016020809104026020016040519081016040528092919081815260200182805461262d90614004565b801561267a5780601f1061264f5761010080835404028352916020019161267a565b820191906000526020600020905b81548152906001019060200180831161265d57829003601f168201915b505050505081526020016003820160009054906101000a900473ffffffffffffffffffffffffffffffffffffffff1673ffffffffffffffffffffffffffffffffffffffff1673ffffffffffffffffffffffffffffffffffffffff16815260200160048201548152602001600582015481526020016006820160009054906101000a900460ff1615151515815260200160078201805461271890614004565b80601f016020809104026020016040519081016040528092919081815260200182805461274490614004565b80156127915780601f1061276657610100808354040283529160200191612791565b820191906000526020600020905b81548152906001019060200180831161277457829003601f168201915b505050505081526020016008820180546127aa90614004565b80601f01602080910402602001604051908101604052809291908181526020018280546127d690614004565b80156128235780601f106127f857610100808354040283529160200191612823565b820191906000526020600020905b81548152906001019060200180831161280657829003601f168201915b5050505050815260200160098201805461283c90614004565b80601f016020809104026020016040519081016040528092919081815260200182805461286890614004565b80156128b55780601f1061288a576101008083540402835291602001916128b5565b820191906000526020600020905b81548152906001019060200180831161289857829003601f168201915b50505050508152602001600a8201548152505090506128d48183612d2e565b505050565b6128e1613303565b73ffffffffffffffffffffffffffffffffffffffff166128ff6120e9565b73ffffffffffffffffffffffffffffffffffffffff1614612955576040517f08c379a000000000000000000000000000000000000000000000000000000000815260040161294c90613d01565b60405180910390fd5b600073ffffffffffffffffffffffffffffffffffffffff168173ffffffffffffffffffffffffffffffffffffffff1614156129c5576040517f08c379a00000000000000000000000000000000000000000000000000000000081526004016129bc90613c61565b60405180910390fd5b6129ce8161330b565b50565b606781805160208101820180518482526020830160208501208183528095505050505050600091509050806000015490806001018054612a1090614004565b80601f0160208091040260200160405190810160405280929190818152602001828054612a3c90614004565b8015612a895780601f10612a5e57610100808354040283529160200191612a89565b820191906000526020600020905b815481529060010190602001808311612a6c57829003601f168201915b505050505090806002018054612a9e90614004565b80601f0160208091040260200160405190810160405280929190818152602001828054612aca90614004565b8015612b175780601f10612aec57610100808354040283529160200191612b17565b820191906000526020600020905b815481529060010190602001808311612afa57829003601f168201915b5050505050908060030160009054906101000a900473ffffffffffffffffffffffffffffffffffffffff16908060040154908060050154908060060160009054906101000a900460ff1690806007018054612b7190614004565b80601f0160208091040260200160405190810160405280929190818152602001828054612b9d90614004565b8015612bea5780601f10612bbf57610100808354040283529160200191612bea565b820191906000526020600020905b815481529060010190602001808311612bcd57829003601f168201915b505050505090806008018054612bff90614004565b80601f0160208091040260200160405190810160405280929190818152602001828054612c2b90614004565b8015612c785780601f10612c4d57610100808354040283529160200191612c78565b820191906000526020600020905b815481529060010190602001808311612c5b57829003601f168201915b505050505090806009018054612c8d90614004565b80601f0160208091040260200160405190810160405280929190818152602001828054612cb990614004565b8015612d065780601f10612cdb57610100808354040283529160200191612d06565b820191906000526020600020905b815481529060010190602001808311612ce957829003601f168201915b50505050509080600a015490508b565b606a6020528060005260406000206000915090505481565b6000826000015111612d75576040517f08c379a0000000000000000000000000000000000000000000000000000000008152600401612d6c90613d21565b60405180910390fd5b816060015173ffffffffffffffffffffffffffffffffffffffff163373ffffffffffffffffffffffffffffffffffffffff1614612de7576040517f08c379a0000000000000000000000000000000000000000000000000000000008152600401612dde90613ca1565b60405180910390fd5b600015158260c00151151514612e32576040517f08c379a0000000000000000000000000000000000000000000000000000000008152600401612e2990613ce1565b60405180910390fd5b6000606a60003373ffffffffffffffffffffffffffffffffffffffff1673ffffffffffffffffffffffffffffffffffffffff1681526020019081526020016000205411612eb4576040517f08c379a0000000000000000000000000000000000000000000000000000000008152600401612eab90613c41565b60405180910390fd5b60018260c00190151590811515815250508082610120018190525042826101400181815250508160678360400151604051612eef9190613c0f565b9081526020016040518091039020600082015181600001556020820151816001019080519060200190612f23929190613531565b506040820151816002019080519060200190612f40929190613531565b5060608201518160030160006101000a81548173ffffffffffffffffffffffffffffffffffffffff021916908373ffffffffffffffffffffffffffffffffffffffff1602179055506080820151816004015560a0820151816005015560c08201518160060160006101000a81548160ff02191690831515021790555060e0820151816007019080519060200190612fd8929190613531565b50610100820151816008019080519060200190612ff6929190613531565b50610120820151816009019080519060200190613014929190613531565b5061014082015181600a0155905050816068600084600001518152602001908152602001600020600082015181600001556020820151816001019080519060200190613061929190613531565b50604082015181600201908051906020019061307e929190613531565b5060608201518160030160006101000a81548173ffffffffffffffffffffffffffffffffffffffff021916908373ffffffffffffffffffffffffffffffffffffffff1602179055506080820151816004015560a0820151816005015560c08201518160060160006101000a81548160ff02191690831515021790555060e0820151816007019080519060200190613116929190613531565b50610100820151816008019080519060200190613134929190613531565b50610120820151816009019080519060200190613152929190613531565b5061014082015181600a015590505081606983602001516040516131769190613c0f565b90815260200160405180910390206000820151816000015560208201518160010190805190602001906131aa929190613531565b5060408201518160020190805190602001906131c7929190613531565b5060608201518160030160006101000a81548173ffffffffffffffffffffffffffffffffffffffff021916908373ffffffffffffffffffffffffffffffffffffffff1602179055506080820151816004015560a0820151816005015560c08201518160060160006101000a81548160ff02191690831515021790555060e082015181600701908051906020019061325f929190613531565b5061010082015181600801908051906020019061327d929190613531565b5061012082015181600901908051906020019061329b929190613531565b5061014082015181600a0155905050606a60003373ffffffffffffffffffffffffffffffffffffffff1673ffffffffffffffffffffffffffffffffffffffff16815260200190815260200160002060008154809291906132fa90613fda565b91905055505050565b600033905090565b6000603360009054906101000a900473ffffffffffffffffffffffffffffffffffffffff16905081603360006101000a81548173ffffffffffffffffffffffffffffffffffffffff021916908373ffffffffffffffffffffffffffffffffffffffff1602179055508173ffffffffffffffffffffffffffffffffffffffff168173ffffffffffffffffffffffffffffffffffffffff167f8be0079c531659141344cd1fd0a4f28419497f9722a3daafe3b4186f6b6457e060405160405180910390a35050565b60006133dc3061343b565b15905090565b600060019054906101000a900460ff16613431576040517f08c379a000000000000000000000000000000000000000000000000000000000815260040161342890613d41565b60405180910390fd5b61343961345e565b565b6000808273ffffffffffffffffffffffffffffffffffffffff163b119050919050565b600060019054906101000a900460ff166134ad576040517f08c379a00000000000000000000000000000000000000000000000000000000081526004016134a490613d41565b60405180910390fd5b6134bd6134b8613303565b61330b565b565b604051806101600160405280600081526020016060815260200160608152602001600073ffffffffffffffffffffffffffffffffffffffff1681526020016000815260200160008152602001600015158152602001606081526020016060815260200160608152602001600081525090565b82805461353d90614004565b90600052602060002090601f01602090048101928261355f57600085556135a6565b82601f1061357857805160ff19168380011785556135a6565b828001600101855582156135a6579182015b828111156135a557825182559160200191906001019061358a565b5b5090506135b391906135b7565b5090565b5b808211156135d05760008160009055506001016135b8565b5090565b60006135e76135e284613e91565b613e6c565b9050828152602081018484840111156135ff57600080fd5b61360a848285613f98565b509392505050565b60008135905061362181614331565b92915050565b600082601f83011261363857600080fd5b81356136488482602086016135d4565b91505092915050565b60008135905061366081614348565b92915050565b60006020828403121561367857600080fd5b600061368684828501613612565b91505092915050565b600080604083850312156136a257600080fd5b60006136b085828601613612565b92505060206136c185828601613651565b9150509250929050565b6000602082840312156136dd57600080fd5b600082013567ffffffffffffffff8111156136f757600080fd5b61370384828501613627565b91505092915050565b6000806040838503121561371f57600080fd5b600083013567ffffffffffffffff81111561373957600080fd5b61374585828601613627565b925050602083013567ffffffffffffffff81111561376257600080fd5b61376e85828601613627565b9150509250929050565b600080600080600060a0868803121561379057600080fd5b600086013567ffffffffffffffff8111156137aa57600080fd5b6137b688828901613627565b955050602086013567ffffffffffffffff8111156137d357600080fd5b6137df88828901613627565b94505060406137f088828901613651565b935050606086013567ffffffffffffffff81111561380d57600080fd5b61381988828901613627565b925050608086013567ffffffffffffffff81111561383657600080fd5b61384288828901613627565b9150509295509295909350565b60006020828403121561386157600080fd5b600061386f84828501613651565b91505092915050565b6000806040838503121561388b57600080fd5b600061389985828601613651565b925050602083013567ffffffffffffffff8111156138b657600080fd5b6138c285828601613627565b9150509250929050565b6138d581613f50565b82525050565b6138e481613f50565b82525050565b6138f381613f62565b82525050565b61390281613f62565b82525050565b600061391382613ec2565b61391d8185613ecd565b935061392d818560208601613fa7565b6139368161413d565b840191505092915050565b600061394c82613ec2565b6139568185613ede565b9350613966818560208601613fa7565b61396f8161413d565b840191505092915050565b600061398582613ec2565b61398f8185613eef565b935061399f818560208601613fa7565b80840191505092915050565b60006139b8601183613ede565b91506139c38261414e565b602082019050919050565b60006139db602683613ede565b91506139e682614177565b604082019050919050565b60006139fe601e83613ede565b9150613a09826141c6565b602082019050919050565b6000613a21601183613ede565b9150613a2c826141ef565b602082019050919050565b6000613a44602e83613ede565b9150613a4f82614218565b604082019050919050565b6000613a67601d83613ede565b9150613a7282614267565b602082019050919050565b6000613a8a602083613ede565b9150613a9582614290565b602082019050919050565b6000613aad601783613ede565b9150613ab8826142b9565b602082019050919050565b6000613ad0602b83613ede565b9150613adb826142e2565b604082019050919050565b600061016083016000830151613aff6000860182613bf1565b5060208301518482036020860152613b178282613908565b91505060408301518482036040860152613b318282613908565b9150506060830151613b4660608601826138cc565b506080830151613b596080860182613bf1565b5060a0830151613b6c60a0860182613bf1565b5060c0830151613b7f60c08601826138ea565b5060e083015184820360e0860152613b978282613908565b915050610100830151848203610100860152613bb38282613908565b915050610120830151848203610120860152613bcf8282613908565b915050610140830151613be6610140860182613bf1565b508091505092915050565b613bfa81613f8e565b82525050565b613c0981613f8e565b82525050565b6000613c1b828461397a565b915081905092915050565b6000602082019050613c3b60008301846138db565b92915050565b60006020820190508181036000830152613c5a816139ab565b9050919050565b60006020820190508181036000830152613c7a816139ce565b9050919050565b60006020820190508181036000830152613c9a816139f1565b9050919050565b60006020820190508181036000830152613cba81613a14565b9050919050565b60006020820190508181036000830152613cda81613a37565b9050919050565b60006020820190508181036000830152613cfa81613a5a565b9050919050565b60006020820190508181036000830152613d1a81613a7d565b9050919050565b60006020820190508181036000830152613d3a81613aa0565b9050919050565b60006020820190508181036000830152613d5a81613ac3565b9050919050565b60006020820190508181036000830152613d7b8184613ae6565b905092915050565b6000602082019050613d986000830184613c00565b92915050565b600061016082019050613db4600083018e613c00565b8181036020830152613dc6818d613941565b90508181036040830152613dda818c613941565b9050613de9606083018b6138db565b613df6608083018a613c00565b613e0360a0830189613c00565b613e1060c08301886138f9565b81810360e0830152613e228187613941565b9050818103610100830152613e378186613941565b9050818103610120830152613e4c8185613941565b9050613e5c610140830184613c00565b9c9b505050505050505050505050565b6000613e76613e87565b9050613e828282614036565b919050565b6000604051905090565b600067ffffffffffffffff821115613eac57613eab61410e565b5b613eb58261413d565b9050602081019050919050565b600081519050919050565b600082825260208201905092915050565b600082825260208201905092915050565b600081905092915050565b6000613f0582613f8e565b9150613f1083613f8e565b9250827fffffffffffffffffffffffffffffffffffffffffffffffffffffffffffffffff03821115613f4557613f446140b0565b5b828201905092915050565b6000613f5b82613f6e565b9050919050565b60008115159050919050565b600073ffffffffffffffffffffffffffffffffffffffff82169050919050565b6000819050919050565b82818337600083830152505050565b60005b83811015613fc5578082015181840152602081019050613faa565b83811115613fd4576000848401525b50505050565b6000613fe582613f8e565b91506000821415613ff957613ff86140b0565b5b600182039050919050565b6000600282049050600182168061401c57607f821691505b602082108114156140305761402f6140df565b5b50919050565b61403f8261413d565b810181811067ffffffffffffffff8211171561405e5761405d61410e565b5b80604052505050565b600061407282613f8e565b91507fffffffffffffffffffffffffffffffffffffffffffffffffffffffffffffffff8214156140a5576140a46140b0565b5b600182019050919050565b7f4e487b7100000000000000000000000000000000000000000000000000000000600052601160045260246000fd5b7f4e487b7100000000000000000000000000000000000000000000000000000000600052602260045260246000fd5b7f4e487b7100000000000000000000000000000000000000000000000000000000600052604160045260246000fd5b6000601f19601f8301169050919050565b7f4e6f7420656e6f75676820637265646974000000000000000000000000000000600082015250565b7f4f776e61626c653a206e6577206f776e657220697320746865207a65726f206160008201527f6464726573730000000000000000000000000000000000000000000000000000602082015250565b7f436572746966696361746520616c726561647920726567697374657265640000600082015250565b7f5065726d697373696f6e2064656e696564000000000000000000000000000000600082015250565b7f496e697469616c697a61626c653a20636f6e747261637420697320616c72656160008201527f647920696e697469616c697a6564000000000000000000000000000000000000602082015250565b7f43657274696669636174696f6e20616c7265616479207265766f6b6564000000600082015250565b7f4f776e61626c653a2063616c6c6572206973206e6f7420746865206f776e6572600082015250565b7f43657274696669636174696f6e206e6f7420666f756e64000000000000000000600082015250565b7f496e697469616c697a61626c653a20636f6e7472616374206973206e6f74206960008201527f6e697469616c697a696e67000000000000000000000000000000000000000000602082015250565b61433a81613f50565b811461434557600080fd5b50565b61435181613f8e565b811461435c57600080fd5b5056fea2646970667358221220d6e03f2f7103fd3fbcd81e75e0b650d58651aea0ea03f924145c98d342988a9f64736f6c63430008040033",
  "linkReferences": {},
  "deployedLinkReferences": {}
}